:020000040800F2
:10000000580D0024AD02000877410008953900081A
:1000100075410008C5060008CD5600080000000024
:10002000000000000000000000000000595100081E
:100030005107000800000000794100085B510008EA
:10004000C7020008C7020008C7020008C70200086C
:10005000C7020008C7020008C7020008C70200085C
:10006000C7020008C7020008C7020008C70200084C
:10007000C7020008C7020008C7020008C70200083C
:10008000C7020008C7020008C7020008C70200082C
:10009000C7020008C7020008C7020008C70200081C
:1000A000C7020008C7020008C7020008C70200080C
:1000B000C7020008C7020008C7020008C7020008FC
:1000C000C7020008C7020008C7020008C7020008EC
:1000D000C7020008C7020008C7020008C7020008DC
:1000E000C7020008C702000800000000C70200089D
:1000F000C7020008C7020008C7020008C7020008BC
:10010000C7020008C7020008C7020008C7020008AB
:10011000C7020008C7020008C7020008C70200089B
:10012000C7020008C7020008C7020008C70200088B
:10013000C7020008C7020008C7020008C70200087B
:1001400000000000000000000000000000000000AF
:10015000C7020008C7020008C7020008C70200085B
:10016000C7020008C7020008C7020008C70200084B
:10017000C7020008C7020008C7020008C70200083B
:10018000C7020008C7020008C7020008C70200082B
:10019000C7020008C7020008C7020008C70200081B
:1001A000C7020008C7020008C7020008C70200080B
:1001B000C7020008C7020008C7020008C7020008FB
:1001C000C7020008C7020008C7020008C7020008EB
:1001D000C7020008C7020008C7020008C7020008DB
:1001E000C7020008C7020008C7020008C7020008CB
:1001F000C7020008C7020008C7020008C7020008BB
:10020000C7020008C7020008C7020008C7020008AA
:10021000C7020008C7020008C7020008C70200089A
:10022000C7020008C7020008C7020008000000005B
:10023000C7020008C702000800000000C70200084B
:10024000C7020008C7020008C7020008C70200086A
:10025000C7020008C7020008C7020008C70200085A
:10026000C7020008C7020008C7020008C70200084A
:10027000C7020008C7020008C7020008000000000B
:10028000C7020008C7020008C702000800000000FB
:1002900000000000C7020008DFF80CD000F05CF896
:1002A00000480047815D0008580D0024064880473B
:1002B00006480047FEE7FEE7FEE7FEE7FEE7FEE74B
:1002C000FEE7FEE7FEE7FEE7495200089902000854
:1002D000D2B201E000F8012B491EFBD27047002288
:1002E000F6E710B513460A4604461946FFF7F0FF35
:1002F000204610BD2DE9F05F0546002092469B4642
:1003000088460646814640241BE02846414647462B
:10031000224600F042F853465A46C01A914110D383
:1003200011461846224600F029F82D1A67EB0108FD
:100330004F4622460120002100F020F817EB00096B
:100340004E41201EA4F10104DFDC484631462A4616
:100350004346BDE8F09F0000064C074D06E0E0680C
:1003600040F0010394E8070098471034AC42F6D3FC
:10037000FFF796FF6812010888120108202A04DBA3
:10038000203A00FA02F1002070479140C2F12003A8
:1003900020FA03F3194390407047202A04DB203AE7
:1003A00021FA02F00021704721FA02F3D040C2F195
:1003B00020029140084319467047000070B53A4941
:1003C00005460068884202D0384A904202D1D1F8EE
:1003D000080302E03648D0F8080310F4403F11D07B
:1003E00002F02CFA04466868B0F5803F06D0B0F5FC
:1003F000003F03D0B0F5403F27D101E0000C18E0EA
:10040000A40822E000214FF4002001F09DFA0446E8
:1004100068688103890B18D181140C2915D2DFE893
:1004200001F0140606060606060B0D0F1113800CCC
:100430004000B4FBF0F408E0240906E0640904E09D
:10044000A40902E0E40900E0240A00F061FF41F29F
:100450000301884208D8174884422868816813D865
:1004600021F48071816070BD13496008884204D80E
:100470002868816821F44071F4E71049884206D861
:100480002868816821F4407141F48071EAE70C49E1
:1004900088422868816804D821F4407141F40071D1
:1004A000E0E741F44071DDE7002002400021024016
:1004B00000600258002D3101105E5F0020BCBE00BC
:1004C00040787D012DE9F04100250E460446006884
:1004D00003F0B6FC0746206803F0AAFC07435BD094
:1004E0002068C168890111D5617D01290ED1217D66
:1004F00001290BD12949012602E08D423DD26D1C14
:100500000268D2435206F8D440210160244D022EE5
:100510000FD0206803F094FC48B120688168C1F3D3
:10052000400121B98168294041F010018160012E0C
:100530000DD0206803F07CFC48B120688168C1F3CD
:10054000400121B98168294041F020018160022EDB
:1005500008D0032E04D0042500F0E0FE064617E084
:100560000C25F9E70825F7E700F0D8FE801B0528E1
:100570000ED92068806828420AD0606D40F01000D3
:100580006065A06D40F00100A0650120BDE8F0812C
:10059000206880682842E7D10020F7E700DC0C00E3
:1005A000C0FFFF7F70B5044600688168C1F3400555
:1005B00003F042FC48B345BB2068816801F00D019F
:1005C000012914D18168124A1140891C8160216877
:1005D0000320086000F0A2FE054612E000F09EFE37
:1005E000401B02280DD920688068C00709D0606DC3
:1005F00040F010006065A06D40F00100A065012092
:1006000070BD20688068C007E8D1002070BD000080
:10061000C0FFFF7F2DE9F0410446006803F00CFCA9
:1006200008BB20688168224A11422FD18168D643D5
:100630003140491C816000F071FE1E4B0546206868
:100640001D4F984201D0B84201D11C4900E01C491D
:100650008968B84201F01F0201D1194600E0014645
:1006600081421ED0EAB121E003F0E6FB20B9206808
:1006700081683140491C816000F050FE401B022817
:100680000FD920680068C043C0070AD0606D40F0F1
:1006900010006065A06D40F00100A0650120BDE87C
:1006A000F08120680168C943C907DDD10020F6E761
:1006B0003F00008000200240002102400023024051
:1006C00000630258FEE70000F0B51F4C206881036C
:1006D0004FF0000011D4BFF34F8FBFF36F8F1B4952
:1006E0000860BFF34F8FBFF36F8F216841F4003173
:1006F0002160BFF34F8FBFF36F8F2168C90322D4EE
:10070000114970310860BFF34F8F081F006843F62E
:10071000FF750E4E1036C0F34E31C0F3C90305EA23
:100720004112184642EA80773760401EFAD2491ECD
:10073000F5D2BFF34F8F206840F480302060BFF3C4
:100740004F8FBFF36F8FF0BD14ED00E050EF00E06E
:1007500070474FF4FA74204603F052FBFBE70000A9
:10076000F8B50025044616460F46009590F850004F
:1007700001280BD0012084F850002046FFF712FF1B
:100780000200606D04D040F010002DE00220F8BDA2
:1007900020F4885040F002006065206807F4803142
:1007A00006F0804319438368124E3340194341F0E9
:1007B00000418160104B20680EE00099491C0091B7
:1007C000994209D3606D20F0020040F0100060658E
:1007D000012084F85050F8BD8168C90FEDD1606DDB
:1007E00020F0020040F001006065104684F850508F
:1007F000F8BD0000C0FFFE3F00F8C3252DE9F84F0B
:1008000000270446DFF898930D460097BB4690F802
:100810005000E44EDFF890A3012808D04FF0010803
:1008200084F85080206803F00BFB18B167E10220C8
:10083000BDE8F88F2168CA692868030329D090FAB7
:10084000A0F0B0FA80F000F01F0308FA03F00243B2
:10085000CA61D5E9002120680C2303EA91131844EA
:10086000036B01F01F014FF01F0CC2F384620CFAFE
:1008700001FC8A4023EA0C0313430363206803F05E
:10088000DFFA0090206803F0D3FA0099014303D007
:100890007EE0C0F38460D6E7AA682968206803F088
:1008A000DBFAC2480168B8EB117F06D1686921689C
:1008B000C968C1F38201490008E02168C868C00620
:1008C0006869F5D5C96801F01001490888402969AF
:1008D00004292DD023682A6803EB81010B6E02F0F6
:1008E000F842024303F0004313430B66697E22681B
:1008F0002869012916D0002102EB8000026E22F047
:1009000000420A430266297E20682A6901290CD028
:100910000021036902F01F0223F4F04391400B43CE
:10092000036135E04FF00041E6E74FF40061F0E786
:100930002068016E2A7801F0F841B1EB826F03D193
:10094000016E21F0004101662068416E2A7801F0B5
:10095000F841B1EB826F03D1416E21F00041416655
:100960002068816E2A7801F0F841B1EB826F03D1E3
:10097000816E21F0004181662068C16E2A7801F005
:10098000F841B1EB826F03D1C16E21F00041C16625
:10099000206803F051FA002873D121682A7B286867
:1009A00051F8C03FC0F3130C23EA0C0302F0180CFB
:1009B0007F4A22FA0CF2024013430B60E968494572
:1009C00075D1286801031AD090FAA0F1B1FA81F12B
:1009D000491C01F01F0109294FEA003130D80029D4
:1009E00010D090FAA0F1B1FA81F101F1010101F00A
:1009F0001F0108FA01F208D1C0F3846109E0C0F3D5
:100A00008461E5E7C0F38461EFE790FAA0F1B1FA01
:100A100081F101F1010101F01F0142EA816102D17E
:100A2000C0F3846003E090FAA0F0B0FA80F000F127
:100A3000010000F01F0000EB400041EA005132E0ED
:100A400000290DD090FAA0F1B1FA81F101F1010174
:100A500001F01F0108FA01F205D1C0F3846106E03C
:100A6000C0F38461F2E790FAA0F1B1FA81F101F1EB
:100A7000010101F01F0142EA816103D1C0F38460EA
:100A800004E041E090FAA0F0B0FA80F0494A00F1A9
:100A9000010000F01F0000EB400002EB005041EAB3
:100AA000000141F00071AA68206803F0D5F92A68B6
:100AB000002A29DA404B2068404DDFF80491984223
:100AC00001D0B04201D1294600E0494689689842E8
:100AD00001F0E07101D0B0420AD1D3F808C0D6F8D5
:100AE0000880CCF3000CC8F300084CEA080C03E0C3
:100AF000DAF808C0CCF3000CBCF1000F08D0606D30
:100B000040F020006065012784F850B038468FE639
:100B1000DFF8B0C062451DD15FEA012C1AD4504500
:100B2000F2D1984202D0B04200D04D4641F40000CC
:100B3000A96821F0E0710143A960234823490068B6
:100B4000B0FBF1F04000801C00E0401E0090002847
:100B5000FBD1D9E7DFF878C062450CD15FEAC11C50
:100B600009D45045D0D1984202D0B04200D04D4671
:100B700041F080700EE0DFF85CC06245C4D14A02EB
:100B8000C2D45045C0D1984202D0B04200D04D46A8
:100B900041F48000A96821F0E0710143A960B3E746
:100BA0000000FF4700210240006002580010005C76
:100BB000FFFF0F00000020FE002002400023024043
:100BC00000630258000084CB24000024400D030081
:100BD000000052C70000B8CF0068006C70470000EA
:100BE000F8B54FF0000504002E46009502D0606D68
:100BF00010B107E00120F8BD204600F001F9A6651C
:100C000084F8506020688168C1F3407119B181682F
:100C10006E4A1140816020688168C1F3007181B91A
:100C200081686B4A114041F08051816069486A498E
:100C30000068B0FBF1F0401C00E0401E009000286E
:100C4000FBD120688168C1F3007141B9616D41F049
:100C500010016165A16D41F00101A165012503F05D
:100C6000EFF8616D01F010010143606D05D040F0B7
:100C70001000606501252846F8BD20F4807040F022
:100C800002006065206803F0D7F800BB534A206873
:100C9000534B904201D0984207D191689E68C1F3AE
:100CA0000001C6F30006314303E04E498968C1F3F1
:100CB000000161B9904201D0984201D14A4800E058
:100CC0004A486168826822F47C120A43826000F01C
:100CD0001FFB41F20301884202D9A06810280CD002
:100CE000A168206B227F0843617D490341EA0241EC
:100CF0000843D1B201290CD010E0617D227F206B26
:100D0000490340F0100041EA0241084340F00C0062
:100D1000EFE7218C364A02EB41410843616A29B171
:100D2000A26A01F47871014342EA01002168CA68AD
:100D3000304B1A400243CA60206803F081F806462F
:100D4000206803F075F806431DD1217DE06A40EA72
:100D500081312068C26844F203039A430A43C260A7
:100D600094F83800012816D02068016921F00101AB
:100D7000016120680169626B21F0704111430161DA
:100D80002046FFF71BFBE06801282068016B21F07B
:100D90000F0110D012E0D4E91010A28F164B0143BE
:100DA000A06C03EB02421043014320680269134B1D
:100DB0001A401143DCE7A269521E11430163606DC2
:100DC00020F0020040F00100606554E7C0FFFF5FC3
:100DD000C0FFFF7F24000024400D030000200240DC
:100DE00000210240006002580023024000630258C4
:100DF0000000FEFF03C0F0FF0100FFFF1EF800FC33
:100E000010B5B2B00446C0216846FFF768FA1B4926
:100E1000206888422FD100214FF40020CDE9000145
:100E20000A200A903C200B9002200C900D900E900E
:100E300040020F904010CDE91001C0012990684692
:100E400000F0F0FE08B1FFF784FC0D48016841F0A6
:100E500080710160016801F080713091016841F09A
:100E600004010160006800F0040030904FF08060E1
:100E7000014602F05FFB32B010BD00000060025876
:100E8000E04402582DE9F047DFF80C910446006871
:100E90000F464249424B4845DFF808A101D0504572
:100EA00001D10A4600E01A46926802F01F06226944
:100EB000082A14D0AEB1052E13D0092E11D0484502
:100EC00002D0504500D01946886800F4404058B11F
:100ED000606D40F0200060650120BDE8F0870825C6
:100EE00003E0C068C007F2E7042500F017FA804667
:100EF00015E0781C13D000F011FAA0EB0800B842FE
:100F000000D867B920680068284208D1606D40F0B9
:100F100004006065002084F850000320DDE72068AD
:100F200000682842E5D0606D40F40070606520687C
:100F300002F08AFF80B1607D70B920680068000708
:100F40000AD5606D20F480706065606DC00403D4C4
:100F5000606D40F0010060652068504501D1494650
:100F600000E00146814208D03EB1052E05D0092E91
:100F700003D0504503D1494602E0C16801E0014673
:100F8000C968082D05D0490401D40C210160002056
:100F9000A3E70821FAE700000020024000230240F6
:100FA00000630258002102402DE9F0413A4E044608
:100FB00000683A4FB04201D0B84201D1384900E050
:100FC0003849896801F01F0502F03AFF18B1022183
:100FD0000846BDE8F08194F8500001280CD00120AB
:100FE00084F850002046FFF715FB01004FF0000386
:100FF00004D084F85030EBE70220EAE7606D40F659
:101000000162904340F4807060652068B84201D16D
:10101000324600E00246824200D01DB9626D22F4E1
:1010200080126265626DD20404D5A26D22F00602C0
:10103000A26500E0A3651C22026084F8503020689D
:10104000B84201D1324600E00246824215D0A5B135
:10105000052D12D0092D10D0626D42F48012626508
:10106000B84200D00646F0688001B1D5606D20F42A
:10107000005040F480506065AAE7C268920105D52F
:10108000626D22F4005242F4805262658268064B1F
:101090001A40121D82609BE700200240002102409E
:1010A0000023024000630258C0FFFF7F10B50446D2
:1010B00090F85000012808D0012084F85000032146
:1010C0002046FFF7FFF910B10BE0022010BD2046CB
:1010D000FFF768FA28B9616D21F4885141F00101E8
:1010E0006165002184F8501010BD000070B5044601
:1010F00000F014F90546601C02D00448007804444E
:1011000000F00CF9401BA042FAD370BD1800002477
:101110002DE9F84F694C00224FF0B04A4FF0010B17
:101120004FF003084FF00F09C0E00BFA02F633400E
:1011300073D00D7905F00305012D01D0022D15D1D5
:101140008768550008FA05FC27EA0C07D1F80CC09F
:101150000CFA05FC4CEA070CC0F808C04568B5431A
:101160000E79C6F3001696402E4346600D79ED4386
:10117000AD0708D0C668550008FA05F7BE438F686A
:10118000AF403743C7600D7905F00305022D11D13B
:10119000D50800EB85073E6A5507ED0E09FA05FCF8
:1011A00026EA0C06D1F810C00CFA05FC4CEA060C35
:1011B000C7F820C00668550008FA05F7BE430F7946
:1011C00007F00307AF40374307604D6815F4403F11
:1011D0006BD03B4D2E6846F002062E602D6822F043
:1011E000030606F1B04605F002050095D6F808742E
:1011F00095074FEA157C09FA0CF5AF43314DA8422B
:1012000001D100252EE0304DA84201D1012529E071
:101210002E4DA84202D1022524E046E02C4DA842E2
:1012200001D103251EE02B4DA84201D1042519E070
:10123000294DA84201D1052514E0284DA84201D12D
:1012400006250FE0264DA84201D107250AE0254DCD
:10125000A84201D1082505E0234DA84201D1092566
:1012600000E00A2505FA0CF53D43C6F80854DAF803
:10127000005056464F689D43FF0200D51D43356020
:1012800075684F689D43BF0200D51D437560656852
:101290004E689D43B60300D51D43656025684E68C2
:1012A0009D43F60300D51D432560521C0B6833FA9D
:1012B00002F57FF43AAFBDE8F88F000080000058D7
:1012C000F444025800000258000402580008025872
:1012D000000C02580010025800140258001802585E
:1012E000001C0258002002580024025800690840DF
:1012F00000D0012070470AB1816170470904FBE703
:1013000002480068C0F30B00704700000010005C4A
:1013100001480068000C70470010005C01488068BC
:1013200070470000180000240248816802781144C8
:101330008160704718000024032010B500F0D0F839
:1013400001F0B0FA0F4A11681268C1F303230E4985
:10135000CB5C03F01F03D84002F00F02895C0B4AFC
:1013600001F01F0120FA01F1116009490860002015
:1013700000F010F808B1012010BD00F075F8002051
:1013800010BD000018440258B05F00082800002477
:101390002400002470B50D4D04462A78A2B14FF404
:1013A0007A700B49B0FBF2F00968B1FBF0F002F083
:1013B000DBF848B9102C07D200222146501E00F05D
:1013C0006FF800206C6070BD012070BD1800002413
:1013D00024000024134A41781160111D03780A1D6E
:1013E000E3B143680B60017BC37A090741EA0361FB
:1013F000837A41EAC341437B41EA8341837B41EAEB
:101400004341C37B41EA0341437A41EA0321037A22
:10141000007841EA430101431160704700200860F1
:101420001060704798ED00E0BFF35F8F04480168DB
:1014300021F480310160024900207031086070475A
:1014400024ED00E0074940F00100086005487038CD
:10145000016841F480310160BFF34F8FBFF36F8F9C
:101460007047000094ED00E00C4808B5016841F0B9
:1014700002010160016801F002010091016841F47C
:1014800000410160006800F40040009002F05AF84A
:10149000BDE80840022002F05DB80000F4440258A4
:1014A0000E4BF0B41B68C3F30223C3F10704042CF2
:1014B00000D904241D1D072D01D2002300E0DB1EEE
:1014C000012606FA04F56D1E0D409D409E40761ED5
:1014D000164045EA0601F0BC04F00EB90CED00E040
:1014E000064A00F0070110684FF6FF03184040EA73
:1014F0000120034908431060704700000CED00E034
:101500000000FA05124970B50A68D243520705D5A2
:10151000096801F00701814212D117E00A6822F040
:10152000070202430A60FFF7F9FE094D4FF47A768D
:101530000446083D06E0FFF7F1FE001BB04201D96A
:10154000012070BD2868C0438004F4D4002070BD21
:101550000C48025810B501F071F905490968054AAF
:10156000C1F30211515C01F01F01C84010BD000021
:1015700020440258B05F00084F4910B50A68096856
:1015800002F003024C4B1B1DC1F305111B684A4CB2
:1015900003F001030C3424680029C4F3CC0414FBC9
:1015A00003F300EE103AB8EE400A7FD09FED431AE5
:1015B0009FED432A404BF7EE000A083322B1012A7F
:1015C00066D0022A22D16AE03B4A283A1468A4066F
:1015D0001CD51268C2F3C1043A4AE24001EE902AD7
:1015E000F8EE612A01EE901AF8EE611A196882EE9F
:1015F000A12AC1F3080101EE901AF8EE611A40EE3B
:10160000011A31EEA00A22EE000A12E001EE901A51
:101610001968F8EE611AC2EE212AC1F3080101EE41
:10162000901AF8EE611A40EE011A31EEA00A22EE8D
:10163000800A1968C1F3462101EE101AB8EE411A6A
:1016400031EE201AC0EE011ABCEEE11A80ED001A4C
:101650001968C1F3064101EE101AB8EE411A31EED5
:10166000201AC0EE011ABCEEE11A80ED011A1968C9
:10167000C1F3066101EE101AB8EE411A71EE200AAC
:1016800080EE201ABCEEC10A80ED020A10BD0DE00A
:1016900001EE901ADFED0C2AF8EE611AA6E701EED2
:1016A000901ADFED0A2AF8EE611A9FE70021016027
:1016B00041608160EAE700002844025800000039D8
:1016C0000024744C0090D0030024744A20BCBE4B0C
:1016D000484910B50A68096802F00302454B1B1D12
:1016E000C1F305311B68434C1434C3F30013246861
:1016F000C4F3CC0414FB03F300EE103AB8EE400A36
:10170000E9B33C4B9FED3C1A1033F7EE000A62B18F
:10171000DFED3A1A012A01D0022A5ED002EE101A39
:10172000F8EE422A81EEA22A1AE0324A283A1468D8
:10173000A4060DD51268C2F3C104314AE24001EE9D
:10174000902AF8EE612A01EE901AF8EE611A05E08F
:1017500001EE901ADFED2B2AF8EE611A82EEA12A33
:101760001968C1F3080101EE901A1968F8EE611AC0
:1017700040EE011A31EEA00A22EE000A00E033E04A
:10178000C1F3462101EE101AB8EE411A31EE201ACB
:10179000C0EE011ABCEEE11A80ED001A1968C1F31F
:1017A000064101EE101AB8EE411A31EE201AC0EED1
:1017B000011ABCEEE11A80ED011A1968C1F3066145
:1017C00001EE101AB8EE411A71EE200A80EE201ACE
:1017D000BCEEC10A80ED020A10BD01EE901ADFEDE9
:1017E0000A2AF8EE611AB9E70021016041608160C0
:1017F00010BD000028440258000000390024744A3B
:101800000090D0030024744C20BCBE4B484910B556
:101810000A68096802F00302454B1B1DC1F305511C
:101820001B68434C1C34C3F300232468C4F3CC046A
:1018300014FB03F300EE103AB8EE400AE9B33C4B58
:101840009FED3C1A1833F7EE000A62B1DFED3A1A49
:10185000012A01D0022A5ED002EE101AF8EE422AC6
:1018600081EEA22A1AE0324A283A1468A4060DD55D
:101870001268C2F3C104314AE24001EE902AF8EE48
:10188000612A01EE901AF8EE611A05E001EE901A55
:10189000DFED2B2AF8EE611A82EEA12A1968C1F356
:1018A000080101EE901A1968F8EE611A40EE011A6B
:1018B00031EEA00A22EE000A00E033E0C1F3462137
:1018C00001EE101AB8EE411A31EE201AC0EE011ADC
:1018D000BCEEE11A80ED001A1968C1F3064101EE71
:1018E000101AB8EE411A31EE201AC0EE011ABCEE01
:1018F000E11A80ED011A1968C1F3066101EE101AB0
:10190000B8EE411A71EE200A80EE201ABCEEC10A30
:1019100080ED020A10BD01EE901ADFED0A2AF8EE02
:10192000611AB9E7002101604160816010BD0000CB
:1019300028440258000000390024744A0090D00363
:101940000024744C20BCBE4B2DE9F04FB24C80F407
:101950008078B04A89B0DFF8BCA24FF080572511DB
:10196000AE4BDFF8BC92503A58EA0108AAF10406DF
:101970004FF0005C33D080F4007858EA01085DD065
:10198000DFF890B280F4806858EA01080BF1080B88
:1019900066D080F4006858EA010878D080F4805856
:1019A00058EA01086BD080F4005858EA01084FF457
:1019B00080394FF4003E77D080F4002858EA0108BF
:1019C00073D080F4803858EA01086FD080F48046E4
:1019D0000E436CD080F40040084369D02AE0DAF866
:1019E000000000F00700052824D2DFE800F08FB9DE
:1019F0007D25AE0006A8FFF7BFFD079809B0BDE83A
:101A0000F08F6846FFF764FE0098F7E703A8FFF73A
:101A1000FDFE0398F2E71068C0F3C10024FA00F05D
:101A2000ECE71168C90572D5B84270D12846E5E7E0
:101A30001846E3E70020E1E74846DFE7DAF8000070
:101A400000F4E07080284FD004DC00285ED04028ED
:101A5000F0D185E0C028EFD0B0F5807FEAD174E006
:101A6000DBF8000000F46000B0F5800F3CD007DC2C
:101A700000284BD0B0F5001FDCD171E007E01FE07B
:101A8000B0F5C00FD8D0B0F5000FD3D15DE0DBF8D2
:101A9000000000F0E060B0F1007F25D009DCA8B3C1
:101AA000B0F1807FC6D15BE022E045E06AE077E0FC
:101AB0009AE0B0F1407FBFD0B0F1806FBAD144E07E
:101AC000DAF8000000F4E040B0F5005F0CD004DC70
:101AD000E0B1B0F5805FADD142E0B0F5405FABD092
:101AE000B0F5804FA6D130E010688000A2D58DE718
:101AF000DAF8000000F4E020B0F5403F6BD007DCDE
:101B000068B1484579D0704594D156E07DE033E026
:101B1000B0F5802F63D0B0F5A02F8BD171E000F02D
:101B2000AFFE6BE76846FFF7D3FD019866E703A8B1
:101B3000FFF76CFE049861E7DBF8000010F440301A
:101B40000ED0484510D0704588D13068116800F03B
:101B5000405049077FF565AF00287FF462AF5AE730
:101B600010680001C2D54CE710688000BED503A8FC
:101B7000FFF74CFE059841E711688903B6D560452B
:101B800090D155E7306810F480303ED0484589D177
:101B900010680001AAD56846FFF79AFD02982DE764
:101BA000DBF8000000F0E040B0F1405F13D008DC4B
:101BB00070B1B84221D060458DD110688000B6D494
:101BC00038E7B0F1804F0AD0B0F1A04FF8D118E05B
:101BD000FFF7C0FC12E710684007F1D51BE710685B
:101BE000C005EDD522E708E0DAF8000010F040501B
:101BF00007D0B84209D06045E2D11068000191D405
:101C000018E710688003DBD512E710688001D7D58C
:101C1000F0E60000504402580090D00340787D0167
:101C20000080BB002DE9FC5F044600680025FA4FE8
:101C3000C043DFF8E8832E46010104F1080001905B
:101C400004F1280000901DD4A06E50B1B0F5801FA3
:101C50000CD0B0F5001F0ED0B0F5401F1ED00125EE
:101C60000FE0386840F40030386017E00198022136
:101C700002F084FA03E00098022102F009FB05005B
:101C80000CD02E462088C043C00523D4A06D052863
:101C90001ED2DFE800F00C11161B1B00D8F8001054
:101CA000A26E21F440111143C8F80010EAE7386829
:101CB00040F40030386009E00198002102F05EFA3B
:101CC00003E00098002102F0E3FA054675B100E058
:101CD00001252E462088C043800528D4E06D802849
:101CE0001ED00CDC90B140280ED114E0D8F80010C2
:101CF000A26D21F007011143C8F80010EAE7C028DF
:101D000013D0B0F5807F10D001250FE0386840F483
:101D10000030386009E00198002102F02FFA03E05A
:101D20000098002102F0B4FA05468DB12E462088B5
:101D3000DFF8EC92C04340052CD4D4F8A800B0F5ED
:101D4000800F20D00DDCA0B1B0F5001F0FD115E041
:101D5000D8F80010E26D21F4E0711143C8F80010CA
:101D6000E5E7B0F5C00F13D0B0F5000F10D0012596
:101D70000FE0386840F40030386009E00198002135
:101D800002F0FCF903E00098002102F081FA054618
:101D90007DB12E462088C04300052DD4D4F8AC0078
:101DA000B0F1007F21D00EDCA8B1B0F1807F10D15E
:101DB00016E0D9F80010D4F8A82021F460011143EE
:101DC000C9F80010E6E7B0F1407F13D0B0F1806FA2
:101DD00010D001250FE0386840F40030386009E089
:101DE0000198002102F0CAF903E00098002102F0F6
:101DF0004FFA054675B12E462068C04380011FD4B6
:101E0000E06CD8B110280FD0202812D0302815D07F
:101E1000012514E0D9F80010D4F8AC2021F0E061DD
:101E20001143C9F80010E7E7386840F40030386023
:101E300004E00198022102F0A1F9054675B12E4691
:101E40002088C043C0042BD4206EB0F5005F20D0A2
:101E50000DDCA0B1B0F5805F0FD115E06F48001F19
:101E60000168E26C21F0300111430160E8E7B0F550
:101E7000405F13D0B0F5804F10D001250FE03868D7
:101E800040F40030386009E00198002102F076F952
:101E900003E00098002102F0FBF905468DB12E46C3
:101EA0002088C043800429D4606EB0F5403F23D021
:101EB00010DC08B3B0F5803F14D0B0F5003F0FD16F
:101EC00015E0D8F80010226E21F4E0411143C8F863
:101ED0000010E5E7B0F5802F0ED0B0F5A02F0BD0A5
:101EE00001250AE00198012102F048F903E0009879
:101EF000012102F0CDF9054695B12E462088C04358
:101F000040042AD4D4F8B000B0F1405F23D010DCF4
:101F100008B3B0F1805F14D0B0F1005F0FD115E0CD
:101F2000D8F80010626E21F4E0211143C8F80010C7
:101F3000E4E7B0F1804F0ED0B0F1A04F0BD00125F7
:101F40000AE00198012102F019F903E0009801214B
:101F500002F09EF9054675B12E462088C043000464
:101F60001FD4206FD8B1B0F1805F0ED0B0F1005F08
:101F700010D0012514E0D9F80010D4F8B02021F0D9
:101F8000E0411143C9F80010E7E7386840F4003039
:101F9000386004E00198012102F0F0F8054675B1BF
:101FA0002E462068C043C0011ED4A06CD0B10128C9
:101FB0000ED0022811D0032814D0012513E0D8F840
:101FC0000010226F21F040511143C8F80010E8E7DB
:101FD000386840F40030386004E00198022102F0D3
:101FE000CDF805467DB12E462068DFF838B0C043F5
:101FF000400256D40C48016841F480710160FFF73B
:102000008DF9824618E00548001F0168A26C21F096
:10201000030111430160E7E72C4402585044025881
:10202000584402581044025800480258FFF776F905
:10203000A0EB0A0064282CD8FE480068C005F5D53E
:1020400045BBFD480068B4F8B41000F4407001F4DA
:10205000407188420CD0F8480168026821F4407150
:1020600042F480320260026822F480320260016031
:10207000D4F8B400B0F5807F1AD1FFF74FF982464B
:1020800009E0FFF74BF9A0EB0A0141F288308142E9
:1020900001D9032504E0E84800688007F1D53DB187
:1020A0002E462078DFF894A3C043C00720D03BE041
:1020B000D4F8B400C0F3012103290ED0DBF80010DE
:1020C00021F47C51CBF80010DB480168B4F8B4204F
:1020D000C2F30B0211430160E3E7DBF80020D84BA9
:1020E00022F47C5203EA10100243CBF80020EBE705
:1020F000E06F182816D005DCA0B1082808D01028F9
:1021000004D10AE020280DD028280BD001250AE0B0
:102110000198012102F032F803E00098012102F059
:10212000B7F8054665B12E462078C04380071ED417
:10213000A06F062819D2DFE800F0160C111616164B
:10214000DAF80010E26F21F038011143CAF80010EC
:10215000EAE70198012102F011F803E0009801215B
:1021600002F096F805467DB100E001252E46207864
:10217000C04340071FD4D4F89400062819D2DFE8E2
:1021800000F0160C11161616DAF80010A26F21F0E6
:1021900007011143CAF80010E9E70198012101F095
:1021A000EDFF03E00098012102F072F80546A5B1A9
:1021B00000E001252E462078C04380062BD4D4F8B9
:1021C0009000B0F1405F24D011DC10B3B0F1805F1B
:1021D00015D0B0F1005F10D116E0D9F80010D4F896
:1021E000942021F007011143C9F80010E3E7B0F192
:1021F000804F0ED0B0F1A04F0BD001250AE001981E
:10220000002101F0BBFF03E00098022102F040F83A
:10221000054695B12E462078C04340062BD4D4F80D
:102220009C00B0F5406F24D011DC10B3B0F5806F86
:1022300015D0B0F5006F10D116E0DAF80010D4F820
:10224000902021F0E0411143CAF80010E3E7B0F517
:10225000805F0ED0B0F5A05F0BD001250AE0019899
:10226000002101F08BFF03E00098022102F010F83A
:10227000054695B12E462078C04300062BD4D4F8ED
:10228000A000B0F5C04F24D011DC10B3B0F5005F52
:1022900015D0B0F5804F10D116E0D9F80010D4F861
:1022A0009C2021F4E0511143C9F80010E3E7B0F598
:1022B000004F0ED0B0F5204F0BD001250AE0019859
:1022C000002101F05BFF03E00098022101F0E0FF34
:1022D000054655B12E462078C04300071ED4D4F8D9
:1022E0008400B0F5805F0AD00FE0D9F80010D4F870
:1022F000A02021F460411143C9F80010EBE70098D9
:10230000022101F0C5FF00B10126DAF80010D4F86F
:10231000842021F440511143CAF800102078C043B2
:10232000C00613D4D4F89800B0F5807F05D100988A
:10233000022101F0ADFF00B10126D9F80010D4F858
:10234000982021F440711143C9F800102068C0435F
:10235000000316D4D4F8A40038B1B0F5803F09D0FA
:10236000B0F5003F0BD001250AE00198002101F0F3
:1023700005FF03E00098022101F08AFF05468DB1B8
:102380002E462068C043400322D4D4F88800B0F51C
:10239000801F11D0B0F5001F13D0B0F5401F15D02D
:1023A000012514E0D9F80010D4F8A42021F440311C
:1023B0001143C9F80010E4E7386840F40030386091
:1023C00004E00098012101F063FF05465DB12E464F
:1023D0002068C043C0031CD4206D70B1B0F5803FAD
:1023E00010D0012514E0DAF80010D4F8882021F488
:1023F00040111143CAF80010EAE7386840F4003091
:10240000386004E00198022101F0B8FE05462DB3C2
:102410002E462068C043800005D40098022101F0B8
:1024200037FF00B101262068C043800324D4D4F8CC
:10243000800007E000480258704402585444025893
:10244000CFFFFF00B0B1B0F5807F0FD0B0F5007FB7
:1024500010D0B0F5407F0DD001250CE05A4801683E
:10246000226D21F4803111430160D2E7386840F4D5
:1024700000303860F5B32E462068C043C00207D450
:10248000D8F80010626F21F000411143C8F8001025
:102490002068C043C00008D4DBF80010D4F8B8208E
:1024A00021F480411143CBF800102068C043800222
:1024B00007D4D8F80010E26E21F080711143C8F8FB
:1024C00000102068C04340000CD4DBF8001021F459
:1024D0000041CBF80010DBF80010D4F8BC20114309
:1024E000CBF800102068C04308D43748016821F0B9
:1024F000405100E017E0626D114301602068C04365
:10250000000208D4DAF80010D4F88C2021F440013D
:102510001143CAF8001020790025C04300F00100E3
:1025200028430AD00FE0DAF80010D4F8802021F414
:1025300040711143CAF800109EE70198002101F094
:102540001DFE00B106462079C04300F0020028437A
:1025500005D10198012101F011FE00B10646207954
:10256000C04300F00400284305D10198022101F086
:1025700005FE00B106462079C04300F0080028435C
:1025800005D10098002101F083FE00B106462079B4
:10259000C04300F01000284305D10098012101F04C
:1025A00077FE00B106462079C04300F020000543C5
:1025B00004D10098022101F06BFE00B916B1012090
:1025C000BDE8FC9F0020FBE74C4402582DE9F05F7A
:1025D00004000D467ED0DFF84492D9F8000000F0E8
:1025E0000F00A8420CD2D9F8001021F00F012943A6
:1025F000C9F80010D9F8000000F00F00A84269D116
:102600002078874E40070AD52069316801F07001B3
:10261000884204D9316821F070010143316020788B
:10262000DFF8008200070CD560694146D8F8002029
:1026300002F07002904204D90A6822F0700202434C
:102640000A602078C0060CD5A0694146D8F8002061
:1026500002F4E062904204D90A6822F4E062024384
:102660000A602078DFF8C0B180060CD5E0695946D1
:10267000DBF8002002F07002904204D90A6822F0D0
:10268000700202430A60207880070AD5E06831684A
:1026900001F00F01884204D9316821F00F01014394
:1026A00031602078C0073DD03068A16820F47060A8
:1026B000084330605A4960681839022818D0032846
:1026C00019D00968012819D04907002949DADFF82B
:1026D00050A100E045E0AAF1080ADAF8001021F064
:1026E00007010143CAF80010FEF718FE074611E083
:1026F00009688903E9E709688901E6E7C905E4E7AC
:10270000FEF70CFEC11B41F28830814202D9032042
:10271000BDE8F09FDAF80000616800F03800B0EB27
:10272000C10FEDD1207880070AD5E068316801F04B
:102730000F01884204D2316821F00F01014331605A
:10274000D9F80010484601F00F01A9420BD90168E1
:1027500021F00F0129430160006800F00F00A8423A
:1027600001D00120D4E7207840070AD520693168DC
:1027700001F07001884204D2316821F070010143F8
:102780003160207800070CD560694146D8F80020F8
:1027900002F07002904204D20A6822F070020243F2
:1027A0000A602078C0060CD5A0694246D8F800100F
:1027B00001F4E061884204D2116821F4E061014330
:1027C0001160207880060CD5E0695946DBF80020BE
:1027D00002F07002904204D20A6822F070020243B2
:1027E0000A6000F05FF83168C1F303220F498A5C88
:1027F00002F01F02D040326802F00F02895C0C4ADE
:1028000001F01F0120FA01F111600A4908600A482D
:102810000068BDE8F05FFEF7BDBD0000002000527B
:10282000184402581C44025820440258B05F000863
:1028300028000024240000241C00002400B500F01F
:1028400031F80B4A11681268C1F303230949CB5CC4
:1028500003F01F03D84002F00F02895C064A01F022
:102860001F0120FA01F11160044A1060084600BD02
:1028700018440258B05F00082800002424000024F7
:1028800000B5FFF7DBFF05490968054AC1F30211EE
:10289000515C01F01F01C84000BD00001C440258FB
:1028A000B05F0008434830B50068444C10F0380170
:1028B000414808D00211082903D010290BD018294B
:1028C0000BD0104630BD21688906FBD52168C1F3C5
:1028D000C101C84030BD3A4830BD364918310A6898
:1028E000096802F00302334B1C33C1F305111B6866
:1028F000304D03F0010324352D68C5F3CC0515FBDD
:1029000003F300EE103AB8EE400AE9B3294BDFEDCD
:102910002D0A2033B7EE001A62B1DFED2B1A012A1F
:1029200001D0022A3CD002EE101AF8EE422A81EEC3
:10293000A22A17E0226892060CD52268C2F3C102CF
:10294000D04001EE900AF8EE612A01EE901AF8EEFE
:10295000611A05E001EE901ADFED1C2AF8EE611A0B
:1029600082EEA12A1868C0F3080001EE900A1868E8
:10297000F8EE611A40EE201A31EE810A22EE000ACA
:10298000C0F34620401C00E011E000EE900AF8EE93
:10299000600A80EE201ABCEEC10A10EE100A30BDAB
:1029A00001EE901ADFED0A2AF8EE611AD8E700204E
:1029B00030BD0000104402580090D003004402587B
:1029C00040787D01000000390024744A0024744CD2
:1029D00020BCBE4B2DE9F05F040079D02078DFF8F1
:1029E000F8A3FE4EFE4DC00747D0DAF8000031686C
:1029F00000F03800102815D0182803D101F003008A
:102A000002280FD06068B0F5803F12D010B1B0F549
:102A1000A02F18D0286820F480302860286820F47F
:102A2000802009E02868800327D560680028D4D07A
:102A300023E0286840F480302860606888B1FEF7A1
:102A40006DFC074609E0286840F480202860F0E724
:102A5000FEF764FCC01B642872D828688003F7D591
:102A60000BE0FEF75BFC074604E0FEF757FCC01BDB
:102A70006428F1D828688003F7D4207841F203094C
:102A8000D84F800766D5DAF80000316810F03800BA
:102A90000ED0182801D188070AD0E06880B32968D1
:102AA00021F0190101432960FEF738FC80462EE031
:102AB0002868400702D5E06800288ED02868E168C1
:102AC00020F0190008432860FEF728FC804606E045
:102AD000D8E0FEF723FCA0EB08000228BCD8286849
:102AE0004007F6D5FEF714FC48451AD8206940285F
:102AF00011D0396821F47C3141EA0030386029E096
:102B000016E0FEF70BFCA0EB08000228A4D828680A
:102B10004007F6D5E6E7386820F47C3040F4003012
:102B2000ECE73868217C20F0FE4040EA0160E5E7F0
:102B3000286820F001002860FEF7F0FB804606E0E0
:102B400000E1FEF7EBFBA0EB0800022884D8286820
:102B50004007F6D42078C0065AD5DAF8000031686C
:102B600000F03800DFF870B20828ABF1040B10D089
:102B7000182803D101F0030001280AD0E0690028D9
:102B8000286836D040F080002860FEF7C7FB8046FA
:102B900021E02868C00521D5E069802872D11DE0B8
:102BA000206A20281FD0396821F0F84141EA80606E
:102BB00038602DE0DBF8001094F8202021F07C51E3
:102BC00041EA0261CBF8001022E0FEF7A7FBA0EB80
:102BD000080002289AD82868C005F6D5FEF798FBA9
:102BE0004845E7D8DCE7386820F0F84040F08040FE
:102BF000DEE720F080002860FEF790FB074604E047
:102C0000FEF78CFBC01B0228A0D82868C005F7D4AB
:102C10002078000728D5714960694C310028884622
:102C20000846096810D041F001010160FEF776FB0B
:102C3000074604E0FEF772FBC01B022886D8D8F8CE
:102C400000008007F6D50FE021F001010160FEF7DA
:102C500065FB074604E0FEF761FBC01B022871D844
:102C6000D8F800008007F6D42078800623D5A06924
:102C70000028286810D040F480502860FEF74EFBF2
:102C8000074605E038E1FEF749FBC01B022859D88A
:102C900028688004F7D50EE020F480502860FEF705
:102CA0003DFB074604E0FEF739FBC01B022849D86C
:102CB00028688004F7D4207840074DD5DFF82881B4
:102CC000D8F8001041F48071C8F80010FEF726FB18
:102CD000074604E0FEF722FBC01B642832D8D8F870
:102CE0000000C005F6D53D4FA068483701280AD03E
:102CF00008B1052813D0386820F001003860386822
:102D000020F0040002E0386840F001003860A0685C
:102D100041F2883990B1FEF701FB80460AE038683D
:102D200040F004003860EEE7FEF7F8FAA0EB080187
:102D3000494507D838688007F6D50DE0FEF7EEFA6A
:102D4000804606E083E0FEF7E9FAA0EB080149457A
:102D50007DD838688007F6D4616AD9B3DAF8000004
:102D60004FF6F87BDFF8748008F10808C0F3C20062
:102D7000032808F10409A8F1040A69D02868022987
:102D800020F08070286003D0FEF7C8FA044688E07F
:102D9000FEF7C4FA074604E0FEF7C0FAC01B02289B
:102DA0007CD828688001F7D4306840F2F33188433A
:102DB000E16A40EA0110A16A0843306094F83400E7
:102DC000218E4002491EA0F5007080B2C1F30801B7
:102DD00008430BE0B3E000001044025828440258B6
:102DE000004402580444025800480258218F4FF40E
:102DF000FE02491E02EA0141084394F83C10120207
:102E0000491E02EA01610843C8F80000DAF8001020
:102E1000504621F00101CAF80010D9F80020A36C37
:102E200022EA0B0242EAC302C9F80020DAF80010D5
:102E3000226C21F00C011143CAF80010DAF80010DE
:102E4000626C21F0020111430160016801E025E09C
:102E50002BE041F480310160016841F400310160F0
:102E6000016841F480210160016841F001010160C5
:102E7000286840F080702860FEF750FA044604E0AD
:102E8000FEF74CFA001B022808D828688001F7D505
:102E900055E0FEF743FA001B022802D90320BDE8E3
:102EA000F09F28688001F4D449E03268D8F8000027
:102EB000012921D0A36A02F0030199421CD1E16AE1
:102EC000C2F30512914217D1216BC0F30802491ECB
:102ED0008A4211D1616BC0F34622491E91420BD147
:102EE000A16BC0F30642491E914205D1E16BC0F3CC
:102EF0000660491E814201D00120D0E7D9F80000C8
:102F00004F46A16CC0F3CC00814218D0DAF8000023
:102F1000564620F00100CAF80000FEF7FFF905460A
:102F2000FEF7FCF9A842FBD03868A16C20EA0B0040
:102F300040EAC1003860306840F001003060002095
:102F4000ADE700002DE9F041040027D00025A5627F
:102F5000554F2068554A564BB84206D0904204D08F
:102F6000984202D0E1680F2918D8E16B012606EBE0
:102F7000511CE1680831C908B84201FB0CF105D0C9
:102F8000904203D0984201D0082907D8B84203D014
:102F9000904201D0984204D1102902D90120BDE805
:102FA000F08194F8810020B9204684F8805000F028
:102FB00081F8022084F881002068016821F0010175
:102FC00001602068816801F4F812A169B1F1806F95
:102FD00010D16168B1F5800F01D019B10AE0A16B81
:102FE00021B107E0A16BB1F1805F03D1016841F429
:102FF000805101606068400209D5E068072806D367
:1030000020680168236D21F48071194303E0206872
:10301000016821F480710160A16AE0690843E16BF5
:1030200011430843E168084321688860616A606B66
:10303000A2690843A16B11430843216908436169F0
:103040000843216A084361680843E16C0843A168AA
:103050000843A16C0843A16D08432168C8606068FB
:1030600068B92068816821F4C05141F40061816031
:103070002068816821F4C06141F48061816020682A
:10308000016D21F0010101656068400206D52068EC
:10309000C168626D21F000411143C160C4F88450E1
:1030A00084F8816000207AE7003001400038004059
:1030B000003C004010B5B6B00446142130A8FDF71E
:1030C0000EF9C0216846FDF70AF9194920688842BF
:1030D0002CD10021199140140C46CDE9000168461D
:1030E000FEF7A0FD08B1FDF734FB1248016841F47A
:1030F00000510160006800F4005035900D48103810
:10310000016841F010010160006830A900F0100072
:1031100035904FF4A04030900220CDE931040120D9
:103120003390052034900448FDF7F2FF36B010BD0F
:1031300000340140F0440258001002582DE9F05FBD
:10314000044690F880001D46174601288A464FF035
:10315000000B0DD04FF0010984F88090FEF7DEF8E7
:1031600094F8811006460020012904D0022135E0A0
:103170000220BDE8F09FBAF1000F2ED06FB30421FA
:1031800084F881108046C4F88400C4F864A0A4F8D0
:103190006870A4F86A70E065A4F86000A4F86200A2
:1031A00020676067A068B0F5C02F20681AD0C1689A
:1031B00021F4C02141F48021C160206841686FF38F
:1031C0000F01394341602068016841F0010101604D
:1031D0006068B0F5800F0AD00EE0012184F880000D
:1031E0000846C6E7016821F400610160E5E7206850
:1031F000016841F400710160E0680F281FD948F2AE
:103200000807B4F86A00A8B32068416939420BD0B6
:10321000006B616E0860606E001D6066B4F86A0045
:10322000401EA4F86A00ECE7FEF778F8801BA8427D
:1032300002D3681CE5D04FE0002DE2D14CE0072816
:103240001AD838E020684169C9070BD0008E616E3A
:103250000880606E801C6066B4F86A00401EA4F8A6
:103260006A0009E0FEF75AF8801BA84203D3681CE5
:1032700002D031E023E075B3B4F86A000028E1D150
:103280001DE020684169C9070CD090F83000616EDC
:103290000870606E401C6066B4F86A00401EA4F8B6
:1032A0006A0008E0FEF73AF8801BA84202D3681CC7
:1032B00001D011E07DB1B4F86A000028E1D12046C8
:1032C00001F070F884F8808084F88190D4F884004C
:1032D00088B101204DE7FFE7204601F063F884F84C
:1032E0008080D4F8840040F48070C4F8840084F8AE
:1032F000819003203DE758463BE72DE9F84F04460F
:1033000090F880001D46174601288A464FF0000BB2
:103310000DD04FF0010984F88090FDF7FFFF94F87D
:10332000811006460020012904D0022135E0022048
:10333000BDE8F88FBAF1000F2ED06FB3032184F8E7
:1033400081108046C4F88400C4F85CA0A4F86070C2
:10335000A4F862706066A4F86800A4F86A00606768
:103360002067A068B0F5C02F20681AD0C16821F48A
:10337000C02141F40031C160206841686FF30F0142
:10338000394341602068016841F0010101606068D3
:10339000B0F5800F0AD00EE0012184F880000846C5
:1033A000C6E7016841F400610160E5E72068016853
:1033B00041F400710160E0680F281AD81EE020680F
:1033C000416989070BD5E16D09680162E06D001D57
:1033D000E065B4F86200401EA4F8620009E0FDF761
:1033E0009DFF801BA84202D3681C02D091E0002DF3
:1033F0002ED0B4F862000028E1D170E0072829D867
:1034000069E02068416989071BD5B4F86210012979
:103410000BD9E16B49B1E16D09680162E06D001DF6
:10342000E065B4F86200801E08E0E16D098801845F
:10343000E06D801CE065B4F86200401EA4F86200F4
:1034400008E0FDF76BFF801BA84202D3681C01D087
:103450005FE0B5B3B4F862000028D2D13FE0206845
:10346000416989072ED5B4F8621003290CD9E16BA4
:10347000402909D9E16D09680162E06D001DE06530
:10348000B4F86200001F19E0B4F8621001290BD9EA
:10349000E16B49B1E16D09880184E06D801CE06554
:1034A000B4F86200801E09E0E16D097880F8201010
:1034B000E06D401CE065B4F86200401EA4F86200B4
:1034C00009E026E0FDF72AFF801BA84202D3681C12
:1034D00001D01EE0EDB1B4F862000028BFD1002297
:1034E0002B4608212046009600F0BAFF28B1D4F8F8
:1034F000840040F02000C4F88400204600F052FF11
:1035000084F8808084F88190D4F8840080B1012010
:103510000EE7204600F046FF84F88080D4F884004F
:1035200040F48070C4F8840084F881900320FFE6A2
:103530005846FDE6024A136883430B431360704705
:10354000040400580248016821F00101016070473D
:10355000003C005803490A6822F0020202430A6054
:1035600070470000003C0058401EB0F1807F10B54D
:1035700001D3012010BD4FF0E02460610F216017DE
:1035800002F0BAF80020A06107202061002010BDE1
:1035900030B590F83C20012A3AD0012280F83C2036
:1035A000CA6800248B6822F440721A4D1A434B6893
:1035B00022F480621A430B6822F400621A430B69FA
:1035C00022F480521A434B6922F400521A438B6A48
:1035D00022F480421A430B8B22F4702242EA034207
:1035E0000368AB4202D00C4DAB420CD18D8C22F45F
:1035F000700242EA0552CD6922F08072096A2A43BC
:1036000022F000720A435A6480F83C40002030BD2A
:10361000022030BD0000014000040140F0B590F8E8
:103620003C20012A3CD0012580F83C50022280F841
:103630003D2003685A689C681A4E1B4FB34201D064
:10364000BB4204D122F4700C4A6842EA0C0222F018
:10365000700C0A6842EA0C025A600268B24213D047
:10366000B2F1804F10D0114B9A420DD0104B9A42BC
:103670000AD0104B9A4207D0BA4205D00E4B9A425C
:1036800002D00E4B9A4204D1896824F0800319437A
:10369000916080F83D50002180F83C100846F0BD54
:1036A0000220F0BD00000140000401400004004081
:1036B00000080040000C004000180040004001409D
:1036C00010B5044649B104290AD008290BD094F852
:1036D000470001280AD0012010BD94F84400F8E703
:1036E00094F84500F5E794F84600F2E70220A9B304
:1036F000042937D0082938D084F8470004222068EC
:1037000001F04EFE2068416C41F4004141641849CB
:103710002068884214D0B0F1804F11D015498842FA
:103720000ED0154988420BD01449884208D014495C
:10373000884205D01349884202D01349884207D1F4
:103740008168124A1140062906D0B1F5803F03D0A6
:10375000016841F001010160002010BDFFE784F81D
:103760004400CBE784F84500C8E784F84600C5E785
:10377000000001400004004000080040000C004030
:103780000004014000180040004001400700010013
:1037900010B586B0044614216846FCF7A0FD0E491A
:1037A0002068884216D10D48016841F0100101607F
:1037B0000068694600F0100005904FF480600090AA
:1037C0000220019000200290039001200490044800
:1037D000FDF79EFC06B010BD00000140E044025819
:1037E0000010025870B5044690F83C0000260D46C3
:1037F00001280BD0012084F83C000C2A4AD007DCB9
:1038000082B1042A20D0082A06D131E0022070BDFE
:10381000102A53D0142A63D00126002084F83C00DB
:10382000304670BD206801F0C9FD2068816941F013
:10383000080181612068816921F0040181612068AB
:1038400081692A69114311E0206801F005FE2068B2
:10385000816941F4006181612068816921F480619E
:103860008161206881692A6941EA02218161D4E786
:10387000206801F039FE2068C16941F00801C1618A
:103880002068C16921F00401C1612068C1692A6909
:10389000114311E0206801F06FFE2068C16941F416
:1038A0000061C1612068C16921F48061C161206843
:1038B000C1692A6941EA0221C161AEE7206801F0CD
:1038C00095FE2068416D41F0080141652068416D19
:1038D00021F0040141652068416D2A69114311E01E
:1038E000206801F0BBFE2068416D41F40061416534
:1038F0002068416D21F4806141652068416D2A692D
:1039000041EA0221416588E710B5040003D094F82C
:103910003D0010B107E0012010BD002084F83C00FC
:10392000204600F023F8022084F83D002068211D85
:1039300001F0D6FC012084F8480084F83E0084F8A9
:103940003F0084F8400084F8410084F8420084F885
:10395000430084F8440084F8450084F8460084F865
:10396000470084F83D00002010BD000008B5006845
:103970000649884208D10648016841F0010101600A
:10398000006800F00100009008BD00000000014048
:10399000F0440258FEE7000001480068806B704761
:1039A000C40100242DE9F0410D4601462DED028BA6
:1039B000FFF7F2FF8842044631D0002D2FD000EEF1
:1039C000104A00EE901A01EE105AB8EE400AF8EED6
:1039D000600AB8EE411A70EE600A9FED130A30EEED
:1039E000410A80EE808AFDF799FC104F06460120BF
:1039F000FDF77CFBFDF792FC801B3A6800EE100A95
:103A0000F8EE400A00EE104AB8EE400A00EE880ACE
:103A1000BCEEC00A10EE101A9163A842E7D3BDECC9
:103A2000028BBDE8F081000000000000C40100240A
:103A30002DE9F04F87B006460C2B1D4690460C46EC
:103A400005900F466348DDF84090B0F800A019D00B
:103A50000820009015FB00F0400002F057FA029099
:103A600004A95D4800F02AFF5B4803A900F02EFF7F
:103A7000A8F1200000F0FF0B0020B9F1000F014673
:103A800002D097E00620E4E7DFF848E14AE00C2D99
:103A90000FD0524A02EB0B124FF0000921F0010344
:103AA000525C019313060AD59AFA9AF3AEF80030E5
:103AB0000BE04B4A0BEB4B0302EB8302ECE7BEF847
:103AC00002C09CFA9CFCAEF800C0009BDDF80880A8
:103AD000BEF800C04343401C80B208EB4308019B82
:103AE000A84228F803C000D30020039B5206641CA0
:103AF000A4B2120E9C4202D3AEF800A045E0E31B34
:103B0000AB4206D1049A761CB6B23C469642F3D23A
:103B100006E009F1010303F0FF09B9F1080FC1D371
:103B2000491CC9B2A942B2D346E00C2D33D02B4A6E
:103B300002EB0B124FF0000921F0010E525C13064C
:103B40000BD5244BDDF808801B8893FA93FC009B6F
:103B5000434308EB430828F80EC0401C80B2A8423B
:103B600000D30020039B5206641CA4B2120E9C4298
:103B700008D2E31BAB4214D1049A761CB6B23C4681
:103B8000964215D31349A1F800A0029802F00AF852
:103B900007B0BDE8F08F124A0BEB4B0302EB830238
:103BA000C8E709F1010303F0FF09B9F1080FC6D313
:103BB000491CC9B2A942B8D30C2D09D00820029BD8
:103BC000CDE9000504483A46059900F0E1FDD9E742
:103BD0000620F4E79800002420070024346400083D
:103BE000C05F00082DE9F84F00F0FF0804461019E7
:103BF0000D461FFA80FA4FF0000B58191FFA80F992
:103C0000DDE90A7611E0544502D3E819444685B24D
:103C10004D450FD23B4629462046CDF800B0FFF770
:103C200007FF04EB570084B2761C3278A2F1200023
:103C30005E28E8D9BDE8F88F2DE9F04F5F4D0024EC
:103C400087B05F490120AC602873022068735D482B
:103C500001F0DEF85C4E05215A482A463368984741
:103C60005749B268091F574890475848006884630D
:103C70000022B46A1146564B5248A047FDF74EFB4E
:103C8000DFF850910DF1080A4FF4005804464FF048
:103C9000100B4DE00A20FDF729FAFDF73FFB001B52
:103CA0004FF47A77B8420AD8FDF738FB001B64213D
:103CB00048434649B0FBF7F00968886338E0FDF7F0
:103CC0002DFB001B40F6B837B8422CD8FDF726FB79
:103CD000001B0A21A0F57A70B0FBF1F23EA102A808
:103CE00001F0F6FCCDE900BA28881023012182B248
:103CF0001E3880B2FFF776FFFDF710FB2968001B26
:103D0000A0F57A7048434FF4FA61B0FBF1F34FF637
:103D1000FF710320CDE900016A680021B76BD21E54
:103D20002848B84704E0FDF7F9FA001BB84205D867
:103D300041464846FDF7DAFA0128ABD144464F46E2
:103D400021463846FDF7D2FA012833D000204FF43F
:103D50009671FFF727FE002168680A46CDE9000149
:103D6000B46B2B681748A0471DA102A801F0B0FC56
:103D7000CDE900BA288804211023544682B25E4659
:103D80000846FFF72FFFFDF7BBFA19A1024602A86C
:103D900001F09EFCCDE9006428881023162182B230
:103DA0000420FFF71FFFC8216420FFF7FBFD07B0C9
:103DB000BDE8F08F0A20FDF799F9C1E7100700244C
:103DC000A0000024200700242C000024C4010024AB
:103DD000246A0008000802582530336400000000FF
:103DE00057654163742053747564696F0000000067
:103DF00053544D33324837787820307825580000B6
:103E000070B50A4C0122082105462046FDF773FAD9
:103E1000681EFDF76BF9002220460821FDF76BFABA
:103E2000BDE8704040F2F310FDF760B90010025891
:103E30008068C0F3C00070478068C0F3000070471E
:103E40008068C0F380007047C06810F4406F01D0F4
:103E50000020704701207047042303EAD15318441F
:103E600010B543690724C1F304518C408A40A34331
:103E70001343436110BD7FB5002400940194029464
:103E80000394FDF7D1FA01258DF800501B208DF821
:103E900008008DF80B404FF010468DF80A50684628
:103EA0008DF80140019603958DF80940FDF792FACF
:103EB00016208DF808008DF80F5005208DF80B00A6
:103EC00068468DF80E508DF800508DF80D408DF835
:103ED0000A508DF8015001968DF80C408DF809407C
:103EE000FDF778FA0420FDF7ADFA7FBD70B588B014
:103EF0001C216846FCF7F3F92948002427490125CD
:103F0000042640F8081B80E87000047344730661BF
:103F10000575C0E90654046244628462C46280F894
:103F200030401F48FCF75CFE08B1FCF712FC06208D
:103F300002906946CDE9005040F2FF7003901848A6
:103F4000CDE904648DF81940FCF758FC08B1FCF782
:103F500000FC1448694600900C2001901048FCF7C2
:103F60004DFC08B1FCF7F5FB0F48694600901220A4
:103F700001900B48FCF742FC08B1FCF7EAFB0B4848
:103F800069460090182001900548FCF737FC00288E
:103F900001D0FCF7DEFB08B070BD000000600258E5
:103FA000D80000240000B8CF000084CB000052C726
:103FB000F0B587B014216846FCF791F926480168EE
:103FC00041F010010160016801F0100105910168E4
:103FD00041F004010160016801F0040105910168EC
:103FE00041F080010160016801F0800105910168E4
:103FF00041F00101016000680022184F082100F023
:10400000010005903846FDF776F94FF42056384602
:1040100001223146FDF76FF900246946082000901F
:1040200001253846CDE901540394FDF771F8680382
:104030006946CDE90004022002900948FDF768F8BE
:1040400003206946CDE90065CDE902403846FDF719
:104050005FF807B0F0BD0000E044025800100258BD
:104060000008025816484FF08062144910B50160EC
:104070004FF4800141604FF4C02181600721C1608D
:1040800000210161C0E90512D200C0E907214162A7
:1040900052008162C162C0E90D21C16301644164C3
:1040A0008164C164016541658165FEF74BFF0028AD
:1040B00003D0BDE81040FCF74CBB10BD00340140FC
:1040C0003C01002410B596B000241C210BA81294CA
:1040D00013941494FCF703F92C216846FCF7FFF8BD
:1040E0002348224901600B21C0E9011440F2E73165
:1040F000C0E9031444618461FFF706FC08B1FCF7D2
:1041000028FB1B4812A9129413941494FFF786FA03
:1041100008B1FCF71EFB6020CDE90B040820042247
:104120000BA9CDE90D4012480F9410941194FFF79C
:1041300059FB08B1FCF70DFB4FF4005000940194BB
:1041400069460294CDE90440000303940694CDE946
:104150000740074809940A94FFF71AFA08B1FCF7D8
:10416000F8FA0348FFF714FB16B010BD0000014039
:10417000C4010024FEE77047704700002DE9F047B6
:10418000DFF8088104460E464FF00009D8F8000019
:10419000C043800709D03D4D283D286820F080604D
:1041A0002860FDF7BBF8074607E00120BDE8F0876F
:1041B000FDF7B4F8C01B022860D828680001F7D4C6
:1041C000D8F80010226821F47C3141EA0231C8F8A5
:1041D0000010207A4FF4FE02A1884002491EA0F58B
:1041E000007080B2C1F308010843A189491E02EAA8
:1041F00001410843217C1202491E02EA0161084381
:104200002249103108602148001D0168626921F0CF
:10421000C001114301600168A26921F0200111432E
:104220000160016821F010010160184914310A6829
:104230004FF6F8739A43E36942EAC3020A600168E1
:1042400041F0100101606EB10168012E0ED041F401
:1042500000110160286840F080602860FDF75EF87A
:1042600004460DE0016841F40021F2E741F48011B9
:10427000EFE7FDF753F8001B022801D9032095E76B
:1042800028680001F5D5484690E700002844025808
:104290002DE9F047DFF8088104460E464FF000098B
:1042A000D8F80000C043800709D03D4D283D28685C
:1042B00020F080502860FDF731F8074607E0012024
:1042C000BDE8F087FDF72AF8C01B022860D82868EF
:1042D0008000F7D4D8F80010228821F07C7141EAE0
:1042E0000251C8F80010207A4FF4FE02A188400263
:1042F000491EA0F5007080B2C1F308010843A189EE
:10430000491E02EA01410843217C1202491E02EAC9
:10431000016108432249183108602148001D0168E5
:10432000626921F44061114301600168A26921F4CE
:10433000007111430160016821F480710160184926
:104340001C310A684FF6F8739A43E36942EAC302E4
:104350000A60016841F4807101606EB10168012E4C
:104360000ED041F080710160286840F080502860D4
:10437000FCF7D4FF04460DE0016841F48001F2E748
:1043800041F40001EFE7FCF7C9FF001B022801D947
:10439000032095E728688000F5D5484690E700009F
:1043A0002844025810B502685169936943F0080324
:1043B00093610268936943F0100393610268136884
:1043C00023F0010313600268136940F26F34A343C2
:1043D00013610268936823F44043936090F881204E
:1043E000042A0CD08A060AD5D0F8842042F0800234
:1043F000C0F884200268936943F02003936190F829
:104400008120032A0CD04A060AD5D0F8842042F035
:104410000402C0F884200268936943F0400393616A
:104420008A050AD5D0F8842042F00102C0F8842021
:104430000268936943F400739361C9050AD5D0F803
:10444000841041F00801C0F8841001688A6942F4C0
:1044500080728A610021A0F86210A0F86A1010BD75
:104460002DE9F0411C4616460D460746DDF818803A
:1044700009E0FCF753FFA0EB0800A04202D3601C48
:1044800001D00BE054B13868406935EA000007D02C
:104490000020B042EDD00020BDE8F0810320FBE712
:1044A0000120F6E700207047F8B504466A46002070
:1044B00003468DF8000004F120001321054601F0A9
:1044C00070FD0A210646204600F008FA00236A46DD
:1044D0002821284601F065FD064420460A2100F007
:1044E000FDF900236A463621284601F05AFD0D49A0
:1044F00084190D480A7B896800EBC100007962B11C
:10450000C1B2284601228DF80010694601F042FD33
:10451000001901D04FF0FF30F8BDC0B240F00801E3
:10452000EFE700001007002478000024F8B50446E7
:104530006A46002003468DF8000004F12000132194
:10454000054601F02EFD0A210646204600F0C6F978
:1045500000236A462921284601F023FD064420460F
:104560000A2100F0BBF900236A463621284601F0F3
:1045700018FD0D4984190D480A7B896800EBC100BC
:10458000007962B1C1B2284601228DF80010694657
:1045900001F000FD001901D04FF0FF30F8BDC0B2AE
:1045A00040F00801EFE70000100700247800002425
:1045B0002DE9FF4FD97A83B0987A00255C7B2E468F
:1045C00000EB0120197B5F7D93F819C0090493F873
:1045D000058001EB0461DC7C0144987CDFF80491E8
:1045E00000EB04201C7D240404EB07640719DC7D28
:1045F000987D00EB04201C7E240404EB0C6493F8EB
:1046000003C020449C7804EB0C2493F804C04FEAC8
:104610000C4C0CEB086C6444A4EB01085C18D9F852
:10462000041000903B46891A091A8B460A46DDE9B8
:10463000030100F087FC6F1EF0BBDFF8ACA0D9F8D7
:10464000081099F80C0000281AF8310001D140F048
:1046500008008DF8040003980123362120300090D3
:1046600001AA01F09EFC38BBDDE903015A4600F0C7
:1046700003FC08BB607802228DF8080002A92078AC
:104680008DF80900009801F085FC08B13D4603E073
:10469000A41CB61C4645EDD399F80C004C46D9F83D
:1046A000081000280AEBC100007901D140F0080091
:1046B0008DF80400012300E00EE00098362101AAE5
:1046C00001F06FFC40B96068002200901146236839
:1046D000039800F037FC00B13D4607B02846BDE81E
:1046E000F08F000010070024780000242DE9F0412D
:1046F0001D46134B00248046069F4819661E1B6802
:10470000984218D8404600F0B7FBA0B90D490020E8
:10471000C7F30722FBB205E001EB400701F81020C8
:10472000401C7B70A842F7D306496A0008F12000BC
:1047300001F030FC00B134462046BDE8F0810000B5
:1047400010070024900400242DE9F05F8A460F49E9
:104750001E468346DDF828900025901917464968C3
:104760004FF0FF38884208D8002409E03A194B4638
:104770005146584600F0C2FC08B1454602E0641CB0
:10478000B442F3D32846BDE8F09F00001007002490
:104790002DE9FF5F8346914600261C4601984FF0A5
:1047A000FF38DDE90E7AC11918480268914204D831
:1047B000406809EB0A01814201D9464621E0002503
:1047C0001DE0019909EB0502584600F055FBA0B920
:1047D0000F49002008E0227801EB400301F8102087
:1047E0006278401CA41C5A70B842F4D308497A007D
:1047F0000BF1200001F0CEFB00B146466D1C554583
:10480000DFD304B03046BDE8F09F0000100700245D
:10481000100200242DE9F84F0026994615468A46D5
:10482000DDE90A87834634460CE04B462A4651466A
:1048300058460097FFF75AFF10B14FF0FF3603E0DC
:10484000641C6D1C4445F0D33046BDE8F88F4FF032
:10485000FF30704702488068086000207047000001
:1048600010070024FEB51D46064600F005FB044671
:1048700006F120002E21064602AA01F07DFB044429
:104880003046012202A901F07EFB04446946012260
:10489000304601F078FB04443046012201A901F0C2
:1048A00072FB9DF8042000199DF8001001EB022115
:1048B000296001D04FF0FF30FEBD000002480068C3
:1048C000086000207047000010070024024840687C
:1048D00008600020704700001007002470B50546EE
:1048E000C0690E4680470446EA699047001BB04203
:1048F000FAD3002070BD2DE9F74F5FEA000882B0BF
:104900007DD04FF0000B6A4601215C4608F1200083
:104910005B468DF800B0019001F043FB78214046E2
:10492000FFF7DCFF0198002301216A468DF8004063
:1049300001F037FB782105464046FFF7CFFF01988D
:10494000012311216A468DF8004001F02AFB002363
:104950006A46B1210544019801F023FB46190198EC
:10496000012569462A468DF8005001F013FB87198E
:1049700001982C26694601228DF8006001F00AFB9F
:1049800000EB07094FF02D0A0198012257466946AE
:104990008DF800A001F0FEFA01236A46B2218DF8DD
:1049A00000508144019801F0FCFA012269468144DB
:1049B00001988DF8006001F0EDFA0122694681440A
:1049C00001988DF8007001F0E5FA01236A46B321E1
:1049D0008DF800508144019801F0E3FA0122694604
:1049E000814401988DF8006001F0D4FA01226946F3
:1049F000814401988DF8007001F0CCFA00E0CCE120
:104A000001226946814401988DF8005001F0C2FAF4
:104A10000122694600EB090501988DF8006001F05C
:104A2000B9FA01226946054401988DF8007001F039
:104A3000B1FA4619019807256A4601238DF80050FE
:104A4000B42101F0AEFA06446A46A2208DF80000B7
:104A500001980123C02101F0A4FA871901980226C8
:104A6000694601228DF8006001F094FA0744694616
:104A700084208DF800000198012201F08BFA074490
:104A80006A46C5208DF8000001980123C12101F07C
:104A900088FA07446A460A208DF80000019801232D
:104AA000C22101F07EFA01226946074401988DF87F
:104AB000004001F06FFAC41901988A276A46012361
:104AC0008DF80070C32101F06CFA044469462A2075
:104AD0008DF800000198012201F05CFA01236A467A
:104AE000C4218DF800700444019801F05AFA04447E
:104AF0006946EE208DF800000198012201F04AFA83
:104B000004446A460E208DF8000001980123C52157
:104B100001F047FA044404984FF000036A46007B12
:104B200000287ED02021019801F03BFA01233A2190
:104B30000444019803AA01F034FA0123B146E021AC
:104B40006A46044401988DF8006001F02AFA044492
:104B500069461C208DF800000198012201F01AFA24
:104B600001226946044401988DF8005001F012FAC0
:104B70000444694612208DF800000198012201F0DA
:104B800009FA0444694637208DF800000198012293
:104B900001F000FA0444694632208DF800000198C3
:104BA000012201F0F7F92926694601228DF80060FB
:104BB0000444019801F0EEF9012269460444019889
:104BC0008DF800A001F0E6F901226946044401983D
:104BD0008DF8006001F0DEF90444694625208DF867
:104BE00000000198012201F0D5F9044469462B2008
:104BF0008DF800000198012201F0CCF904446946C7
:104C000039208DF800000198012201F0C3F907193D
:104C1000019801225C4669468DF800B001F0BAF9AE
:104C200000E0BFE00744694601208DF8000002461D
:104C3000019801F0AFF901224FF0030B07440198EE
:104C400069468DF800B001F0A5F9074469461020C7
:104C50008DF800000198012201F09CF901236A46B9
:104C6000E1218DF800B00744019801F09AF907445A
:104C700069461D208DF800000198012201F08AF993
:104C800001226946074401988DF8005001F082F92D
:104C9000C519694606208DF800000198012201F02F
:104CA00079F9471901982E25694601228DF800509F
:104CB00001F070F9074469462C208DF80000019836
:104CC000012201F067F901226946074401988DF835
:104CD000006001F05FF9C6190198012269468DF85C
:104CE00000A001F057F901226946064401988DF8A9
:104CF000005001F04FF901226946064401988DF8F1
:104D0000005001F047F98519694637208DF80000F9
:104D10000198012201F03EF9054469463F208DF8D3
:104D200000000198012201F035F90122694605448D
:104D300001988DF8004001F02DF9012269460544E3
:104D400001988DF8004001F025F9012269460544DB
:104D500001988DF8009001F01DF905446946102076
:104D60008DF800000198012201F014F901236A4630
:104D700013218DF800400544019801F012F94419FF
:104D8000019801236A46292101F00BF90444049992
:104D9000404600F063F9001901D04FF0FF3005B034
:104DA000BDE8F08F2121BEE6F8B520300D46DA21AE
:104DB0006A46064601F0E0F84FF0FF3408B120469D
:104DC000F8BD6F463046DB217A1C01F0D5F800288B
:104DD000F5D1BA1C3046DC2101F0CEF80028EED126
:104DE000BDF801009DF8001040BA61F31F40286033
:104DF0000020F8BD30B40C4603692046114630BC93
:104E0000184730B40C4683692046114630BC184719
:104E10004FF0FF3210B5D8B10B6803604C684460A6
:104E20000C890481CC68C4600C6904614C694461DC
:104E30008C698461C969C1610649416206490162A0
:104E4000064981620649C0E90B100BB1984702463A
:104E5000104610BDF54D000845510008654E00088C
:104E6000034E000830B40C4643692046114630BC5E
:104E700018474FF0FF307047F8B50D4630491446DB
:104E80008B680A7B497B012B0FD8012902D00229AC
:104E900006D018E00AB1183515E0641C1A3512E086
:104EA000012A10D1641CAD1C0DE0012902D0022999
:104EB00005D008E00AB1183405E01A3402E0012AEE
:104EC00001D1A41C6D1C6A462030002307462A210C
:104ED00001F067F806466946280A8DF800000122AD
:104EE000384601F057F806446946012238468DF8E5
:104EF000005001F04FF885196A46002338462B21EF
:104F000001F04FF805446946200A8DF8000001229F
:104F1000384601F03FF805446946012238468DF8CD
:104F2000004001F037F844196A46002338462C2126
:104F300001F037F8001901D04FF0FF30F8BD000044
:104F4000100700242DE9F8430C4643491E46154638
:104F5000DDF820908B680A7B497B012B0ED8012954
:104F600002D0022905D019E00AB1183416E01A342B
:104F700002E0012A12D1A41C6D1C0FE0012902D00D
:104F8000022907D00AE004F101040AB1183505E04E
:104F90001A3503E0012A01D1641CAD1C6A46203099
:104FA000002380462A2100F0FCFF07466946200ABC
:104FB0008DF800000122404600F0ECFF07446946EE
:104FC000012240468DF8004000F0E4FF3444694679
:104FD000641E0744200A8DF800000122404600F0BC
:104FE000D9FFC6196946012240468DF8004000F0FD
:104FF000D1FF84196A46002340462B2100F0D1FFDF
:1050000004446946280A8DF800000122404600F059
:10501000C1FF04446946012240468DF8005000F06B
:10502000B9FF0619694605EB0904641E0122200A2E
:105030008DF80000404600F0ADFF85196946012259
:1050400040468DF8004000F0A5FF401901D04FF018
:10505000FF30BDE8F8830000100700242DE9FC4173
:105060004A7B5026234CA02305468868802738B108
:10507000012805D0012A0FD08AB1022A0FD010E0F2
:10508000012A03D02AB1022A03D00AE0C4E900634E
:1050900007E0C4E9007304E0C4E9003601E0C4E9B4
:1050A000003788680022A060087B2073487B114687
:1050B00060736068009028462368FFF743FF217BF8
:1050C00006460D480029A16800EBC100007901D116
:1050D00040F008008DF804000123362101AA05F1F3
:1050E000200000F05EFF801901D04FF0FF30BDE8D6
:1050F000FC8100001007002478000024F8B5064663
:105100004FF6FF7000EA032040EA1320ADF80000DC
:105110000B480024651E03688B420DD940689042FD
:105120000AD93046FFF7A8FE30B90222694606F1D7
:10513000200000F02FFF00B12C462046F8BD0000F3
:1051400010070024F0B4C46815460E4629463046C0
:10515000A446F0BC1A4660477047FCF7E5B800006B
:1051600070B59CB04C216846FBF7B9F8202113A814
:10517000FBF7B5F80220FCF7C5F9304A00241068A7
:1051800020F00100106010682D48016841F4404192
:105190000160016801F440411B910168C943890421
:1051A000FBD428490B6843F002030B60096801F047
:1051B00002011B91016841F44041016001681168DE
:1051C00041F001011160116801F001011B910168BA
:1051D000C9438904FBD401200090052100040190FB
:1051E00002200990CDE90A0160210E90CDE90C1052
:1051F00008260F90CDE9106468461294FDF7EAFB8B
:105200004FF4FA7518B12846FEF7FAFDFBE714A92A
:105210003F201390032081E851000121179413A827
:10522000189419941A94FDF7D1F9002803D0284650
:10523000FEF7E6FDFBE71CB070BD00002C04005833
:1052400018480258F44402582048016841F470019B
:1052500001601F49086840F0010008601C4A0020F6
:10526000103210600A681B4B1A400A60184A183244
:105270001060121D1060121D1060154A2832106057
:10528000121D1060121D1060121D1060121D1060A2
:10529000121D1060121D1060121D10600A6822F4A9
:1052A00080220A600A49603108600B4800686FF389
:1052B0000F00B0F1005F03D208490120C1F80801D6
:1052C0004FF00060014980390860704788ED00E0C8
:1052D000004402587FEDF6EA0010005C00800051A7
:1052E0002DE9F04702684FF0804A254C254D264EA7
:1052F000A042264F264B09D0504507D0A84205D0E2
:10530000B04203D0B84201D0984204D122F0700CD0
:105310004A6842EA0C02DFF87CC0DFF87C80A042D9
:10532000DFF878900FD050450DD0A8420BD0B04296
:1053300009D0B84207D0984205D0604503D0404517
:1053400001D0484503D122F44075CA682A434D690B
:1053500022F080022A4302608A68C2620A6882627E
:10536000A04207D0984205D0604503D0404501D007
:10537000484501D10969016301214161BDE8F08718
:10538000000001400004004000080040000C004004
:105390000004014000400140004401400048014039
:1053A000042301F01F0110B5046A8B409C43046282
:1053B000036A8A401343036210BD00002DE9F043E5
:1053C000026A22F001020262056A4268836925F0DE
:1053D00002051B4C1C4E23400C6823F003031B4F9B
:1053E0001C438B68DFF868C02B43164DDFF86490D0
:1053F000A84207D0B04205D0B84203D0604501D0E2
:10540000484506D123F00808CB6843EA080323F097
:105410000403A84207D0B04205D0B84203D060458B
:1054200001D0484505D14D6922F4407215438A697F
:105430002A4342608461496841630362BDE8F083A6
:105440008FFFFEFF000001400004014000400140CA
:105450000044014000480140F0B5026A22F0100209
:105460000262056A42688369194C1B4E23400C682E
:1054700023F4407343EA042425F020038D6843EAB3
:105480000513144DA84201D0B04206D1CF6823F0D5
:10549000800343EA071323F04003A8420AD0B04236
:1054A00008D00E4DA84205D00D4DA84202D00D4D9A
:1054B000A84207D14D6922F4406242EA85028D6913
:1054C00042EA850242608461496881630362F0BDFB
:1054D000FF8FFFFE0000014000040140004001403A
:1054E0000044014000480140F0B5026A22F4807295
:1054F0000262056A4268C369194C1B4E23400C685E
:1055000023F003031C4325F400738D6843EA05234D
:10551000144DA84201D0B04206D1CF6823F40063F5
:1055200043EA072323F48063A8420AD0B04208D09C
:105530000E4DA84205D00E4DA84202D00D4DA842F6
:1055400007D14D6922F4405242EA05128D6942EAC0
:1055500005124260C4614968C1630362F0BD000086
:105560008FFFFEFF000001400004014000400140A9
:10557000004401400048014030B5026A22F48052E4
:105580000262046A4268C369124D2B400D6823F41D
:10559000407343EA052524F400538C6843EA04333E
:1055A0000D4CA0420BD00D4CA04208D00C4CA04298
:1055B00005D00C4CA04202D00B4CA04204D14C6947
:1055C00022F4804242EA84124260C5614968016463
:1055D000036230BDFF8FFFFE000001400004014068
:1055E00000400140004401400048014030B5026ADB
:1055F00022F480320262056A4268436D114C2340F6
:105600000C681C4325F400330D8943EA05430E4D15
:10561000A8420BD00D4DA84208D00D4DA84205D090
:105620000C4DA84202D00C4DA84204D14D6922F481
:10563000803242EA0522426044654968816503621E
:1056400030BD00008FFFFEFF00000140000401405C
:1056500000400140004401400048014030B5026A6A
:1056600022F480120262056A4268436D114C2340A5
:105670000C6843EA042425F400130D8943EA05531A
:105680000D4DA8420BD00D4DA84208D00C4DA8429C
:1056900005D00C4DA84202D00B4DA84204D14D6953
:1056A00022F4802242EA8522426044654968C1654D
:1056B000036230BDFF8FFFFE000001400004014087
:1056C000004001400044014000480140FEE7000066
:1056D0000FB4084B10B504A902AA039800F02CF8E7
:1056E000044602A9002000F058FA204610BC5DF8DC
:1056F00014FB00009B5B00080907090E002804DB6F
:1057000000F1E02080F80014704700F00F0000F175
:10571000E02080F8141D704702E008C8121F08C17D
:10572000002AFAD170477047002001E001C1121F22
:10573000002AFBD1704700002DE9FF4F8DB00F46C6
:105740000546002606E025280BD0DDE90F1290471C
:105750006D1C761C28780028F5D111B03046BDE8C4
:10576000F08F0024A246A1460122EC4900E0044348
:1057700015F8013F203B02FA03F00842F7D12878E0
:105780002A2810D06FF02F022878A0F130010929C3
:1057900014D80AEB8A0102EB410144F0020400EB49
:1057A000010A6D1CF0E701CF5FEA000A03D544F45B
:1057B0000054CAF1000A44F002046D1C28782E2817
:1057C00017D115F8010F44F004042A280ED06FF009
:1057D0002F022878A0F1300109290AD809EB8901A4
:1057E00002EB410100EB01096D1CF2E757F8049B45
:1057F0006D1C28786C280FD006DC4C2817D0682840
:105800000DD06A2814D104E0742810D07A280FD162
:105810000DE044F400140AE044F4801401E044F480
:1058200040146978814202D104F580146D1C6D1C0E
:105830002A786E2A1FD00CDC632A31D004DC002ABF
:105840008BD0582A11D1A3E0642A68D0692A0CD1E0
:1058500065E0732A2ED004DC6F2A73D0702A04D13D
:105860009BE0752A6FD0782A6ED01046DDE90F12C2
:105870009047761C50E1C4F30250022806D003285A
:1058800009D0042801CF09D0066045E101CFF11706
:10589000C0E9006140E101CF06803DE106703BE1D7
:1058A00017F8040B8DF8000000208DF80100EB467E
:1058B000012003E057F804BB4FF0FF3061074FF0C1
:1058C000000102D40DE008F10101884649450FDAD4
:1058D0008045F8DB1BF808100029F4D108E008F136
:1058E000010188468142FADB1BF808100029F6D135
:1058F000DDE90F23AAEB08008146214600F036F9C6
:10590000304400EB080604E0DDE90F121BF8010B40
:105910009047B8F10108F7D221464846F7E00A213E
:10592000C4F302534FF0000B0891022B04D001CFB7
:10593000C117032B09D00AE0FF1D27F00707F7E87E
:10594000020108E032E01FE020E000B2C117042BA2
:1059500001D140B2C117031E71F1000307DA4FF005
:10596000000CD0EB0C006CEB01012D2302E02305B1
:1059700004D52B238DF82430012303E0E30701D065
:105980002023F7E7984658E00A2110E010210EE0A6
:1059900010204FF0000B08900CE010214FF0000B8E
:1059A00044F004044FF00809089103E008214FF087
:1059B000000B0891C4F30253022B04D001CF002145
:1059C000032B06D006E0FF1D27F00707F7E80201CA
:1059D00003E080B2042B00D1C0B24FF000082307CF
:1059E0002BD5702A07D0DDF820C08CF0100C5CEAB3
:1059F0000B0C05D00EE040238DF82430012308E085
:105A000050EA010306D030238DF824308DF825208C
:105A100002239846DDF820C08CF0080C5CEA0B0CE1
:105A20000BD150EA010301D1630706D530238DF86D
:105A300024304FF00108A9F10109582A04D038A2F6
:105A40000B9208AA0A920BE03AA2F9E75B46089A81
:105A5000FAF750FC0B9B9B5C0A9A521E0A92137039
:105A600050EA0102F2D10A98ADEB000000F1200BE0
:105A7000600702D524F4803401E04FF00109D945D4
:105A800002DDA9EB0B0000E0002000EB0B0141441C
:105A90000890AAEB010AE00306D4DDE90F232146B2
:105AA000504600F063F806444FF0000908E009A9E9
:105AB00011F80900DDE90F12904709F10109761C80
:105AC000C145F4DBE0030CD5DDE90F232146504648
:105AD00000F04CF8064404E0DDE90F123020904756
